{
    "contractName": "CoveyLedger",
    "abi": [
        {
            "anonymous": false,
            "inputs": [
                {
                    "indexed": true,
                    "internalType": "address",
                    "name": "oldAddress",
                    "type": "address"
                },
                {
                    "indexed": true,
                    "internalType": "address",
                    "name": "newAddress",
                    "type": "address"
                }
            ],
            "name": "AddressSwapped",
            "type": "event"
        },
        {
            "anonymous": false,
            "inputs": [
                {
                    "indexed": true,
                    "internalType": "address",
                    "name": "analyst",
                    "type": "address"
                },
                {
                    "indexed": false,
                    "internalType": "string",
                    "name": "content",
                    "type": "string"
                },
                {
                    "indexed": true,
                    "internalType": "uint256",
                    "name": "created_at",
                    "type": "uint256"
                }
            ],
            "name": "ContentCreated",
            "type": "event"
        },
        {
            "inputs": [],
            "name": "initialize",
            "outputs": [],
            "stateMutability": "nonpayable",
            "type": "function"
        },
        {
            "inputs": [
                {
                    "internalType": "string",
                    "name": "content",
                    "type": "string"
                }
            ],
            "name": "createContent",
            "outputs": [],
            "stateMutability": "nonpayable",
            "type": "function"
        },
        {
            "inputs": [
                {
                    "internalType": "address",
                    "name": "_adr",
                    "type": "address"
                }
            ],
            "name": "getAnalystContent",
            "outputs": [
                {
                    "components": [
                        {
                            "internalType": "address",
                            "name": "analyst",
                            "type": "address"
                        },
                        {
                            "internalType": "string",
                            "name": "content",
                            "type": "string"
                        },
                        {
                            "internalType": "uint256",
                            "name": "created_at",
                            "type": "uint256"
                        }
                    ],
                    "internalType": "struct CoveyLedger.CoveyContent[]",
                    "name": "",
                    "type": "tuple[]"
                }
            ],
            "stateMutability": "view",
            "type": "function",
            "constant": true
        },
        {
            "inputs": [],
            "name": "getAllContent",
            "outputs": [
                {
                    "components": [
                        {
                            "internalType": "address",
                            "name": "analyst",
                            "type": "address"
                        },
                        {
                            "internalType": "string",
                            "name": "content",
                            "type": "string"
                        },
                        {
                            "internalType": "uint256",
                            "name": "created_at",
                            "type": "uint256"
                        }
                    ],
                    "internalType": "struct CoveyLedger.CoveyContent[]",
                    "name": "",
                    "type": "tuple[]"
                }
            ],
            "stateMutability": "view",
            "type": "function",
            "constant": true
        },
        {
            "inputs": [
                {
                    "internalType": "address",
                    "name": "oldAddress",
                    "type": "address"
                },
                {
                    "internalType": "address",
                    "name": "newAddress",
                    "type": "address"
                }
            ],
            "name": "swapAddress",
            "outputs": [],
            "stateMutability": "nonpayable",
            "type": "function"
        }
    ],
    "bytecode": "0x608060405234801561001057600080fd5b506110a3806100206000396000f3fe608060405234801561001057600080fd5b50600436106100575760003560e01c8063497cc8411461005c57806349c675031461007857806354315084146100a8578063572c82c1146100c65780638129fc1c146100e2575b600080fd5b61007660048036038101906100719190610c16565b6100ec565b005b610092600480360381019061008d9190610cbd565b6102e9565b60405161009f9190610eac565b60405180910390f35b6100b0610479565b6040516100bd9190610eac565b60405180910390f35b6100e060048036038101906100db9190610ece565b6105ca565b005b6100ea6106f3565b005b600060405180606001604052803373ffffffffffffffffffffffffffffffffffffffff168152602001838152602001428152509050600160003373ffffffffffffffffffffffffffffffffffffffff1673ffffffffffffffffffffffffffffffffffffffff16815260200190815260200160002081908060018154018082558091505060019003906000526020600020906003020160009091909190915060008201518160000160006101000a81548173ffffffffffffffffffffffffffffffffffffffff021916908373ffffffffffffffffffffffffffffffffffffffff16021790555060208201518160010190805190602001906101ed92919061080d565b50604082015181600201555050600281908060018154018082558091505060019003906000526020600020906003020160009091909190915060008201518160000160006101000a81548173ffffffffffffffffffffffffffffffffffffffff021916908373ffffffffffffffffffffffffffffffffffffffff160217905550602082015181600101908051906020019061028992919061080d565b50604082015181600201555050423373ffffffffffffffffffffffffffffffffffffffff167fc1ee072f438c5824e2a943285a6d24e3375d58914c2b632a57dfa061efce0364846040516102dd9190610f58565b60405180910390a35050565b6060600160008373ffffffffffffffffffffffffffffffffffffffff1673ffffffffffffffffffffffffffffffffffffffff168152602001908152602001600020805480602002602001604051908101604052809291908181526020016000905b8282101561046e57838290600052602060002090600302016040518060600160405290816000820160009054906101000a900473ffffffffffffffffffffffffffffffffffffffff1673ffffffffffffffffffffffffffffffffffffffff1673ffffffffffffffffffffffffffffffffffffffff1681526020016001820180546103d390610fa9565b80601f01602080910402602001604051908101604052809291908181526020018280546103ff90610fa9565b801561044c5780601f106104215761010080835404028352916020019161044c565b820191906000526020600020905b81548152906001019060200180831161042f57829003601f168201915b505050505081526020016002820154815250508152602001906001019061034a565b505050509050919050565b60606002805480602002602001604051908101604052809291908181526020016000905b828210156105c157838290600052602060002090600302016040518060600160405290816000820160009054906101000a900473ffffffffffffffffffffffffffffffffffffffff1673ffffffffffffffffffffffffffffffffffffffff1673ffffffffffffffffffffffffffffffffffffffff16815260200160018201805461052690610fa9565b80601f016020809104026020016040519081016040528092919081815260200182805461055290610fa9565b801561059f5780601f106105745761010080835404028352916020019161059f565b820191906000526020600020905b81548152906001019060200180831161058257829003601f168201915b505050505081526020016002820154815250508152602001906001019061049d565b50505050905090565b8173ffffffffffffffffffffffffffffffffffffffff163373ffffffffffffffffffffffffffffffffffffffff161461060257600080fd5b6000600160003373ffffffffffffffffffffffffffffffffffffffff1673ffffffffffffffffffffffffffffffffffffffff168152602001908152602001600020905080600160008473ffffffffffffffffffffffffffffffffffffffff1673ffffffffffffffffffffffffffffffffffffffff168152602001908152602001600020908054610693929190610893565b508173ffffffffffffffffffffffffffffffffffffffff168373ffffffffffffffffffffffffffffffffffffffff167fd8664d946c6c91d61ec58f6ab38e3c3ba8201c40c329115f516085f2211dcded60405160405180910390a3505050565b600060019054906101000a900460ff1680610719575060008054906101000a900460ff16155b610758576040517f08c379a000000000000000000000000000000000000000000000000000000000815260040161074f9061104d565b60405180910390fd5b60008060019054906101000a900460ff1615905080156107a8576001600060016101000a81548160ff02191690831515021790555060016000806101000a81548160ff0219169083151502179055505b33600360006101000a81548173ffffffffffffffffffffffffffffffffffffffff021916908373ffffffffffffffffffffffffffffffffffffffff160217905550801561080a5760008060016101000a81548160ff0219169083151502179055505b50565b82805461081990610fa9565b90600052602060002090601f01602090048101928261083b5760008555610882565b82601f1061085457805160ff1916838001178555610882565b82800160010185558215610882579182015b82811115610881578251825591602001919060010190610866565b5b50905061088f919061097c565b5090565b82805482825590600052602060002090600302810192821561096b5760005260206000209160030282015b8281111561096a5782826000820160009054906101000a900473ffffffffffffffffffffffffffffffffffffffff168160000160006101000a81548173ffffffffffffffffffffffffffffffffffffffff021916908373ffffffffffffffffffffffffffffffffffffffff160217905550600182018160010190805461094390610fa9565b61094e929190610999565b50600282015481600201555050916003019190600301906108be565b5b5090506109789190610a26565b5090565b5b8082111561099557600081600090555060010161097d565b5090565b8280546109a590610fa9565b90600052602060002090601f0160209004810192826109c75760008555610a15565b82601f106109d85780548555610a15565b82800160010185558215610a1557600052602060002091601f016020900482015b82811115610a145782548255916001019190600101906109f9565b5b509050610a22919061097c565b5090565b5b80821115610a7857600080820160006101000a81549073ffffffffffffffffffffffffffffffffffffffff0219169055600182016000610a679190610a7c565b600282016000905550600301610a27565b5090565b508054610a8890610fa9565b6000825580601f10610a9a5750610ab9565b601f016020900490600052602060002090810190610ab8919061097c565b5b50565b6000604051905090565b600080fd5b600080fd5b600080fd5b600080fd5b6000601f19601f8301169050919050565b7f4e487b7100000000000000000000000000000000000000000000000000000000600052604160045260246000fd5b610b2382610ada565b810181811067ffffffffffffffff82111715610b4257610b41610aeb565b5b80604052505050565b6000610b55610abc565b9050610b618282610b1a565b919050565b600067ffffffffffffffff821115610b8157610b80610aeb565b5b610b8a82610ada565b9050602081019050919050565b82818337600083830152505050565b6000610bb9610bb484610b66565b610b4b565b905082815260208101848484011115610bd557610bd4610ad5565b5b610be0848285610b97565b509392505050565b600082601f830112610bfd57610bfc610ad0565b5b8135610c0d848260208601610ba6565b91505092915050565b600060208284031215610c2c57610c2b610ac6565b5b600082013567ffffffffffffffff811115610c4a57610c49610acb565b5b610c5684828501610be8565b91505092915050565b600073ffffffffffffffffffffffffffffffffffffffff82169050919050565b6000610c8a82610c5f565b9050919050565b610c9a81610c7f565b8114610ca557600080fd5b50565b600081359050610cb781610c91565b92915050565b600060208284031215610cd357610cd2610ac6565b5b6000610ce184828501610ca8565b91505092915050565b600081519050919050565b600082825260208201905092915050565b6000819050602082019050919050565b610d1f81610c7f565b82525050565b600081519050919050565b600082825260208201905092915050565b60005b83811015610d5f578082015181840152602081019050610d44565b83811115610d6e576000848401525b50505050565b6000610d7f82610d25565b610d898185610d30565b9350610d99818560208601610d41565b610da281610ada565b840191505092915050565b6000819050919050565b610dc081610dad565b82525050565b6000606083016000830151610dde6000860182610d16565b5060208301518482036020860152610df68282610d74565b9150506040830151610e0b6040860182610db7565b508091505092915050565b6000610e228383610dc6565b905092915050565b6000602082019050919050565b6000610e4282610cea565b610e4c8185610cf5565b935083602082028501610e5e85610d06565b8060005b85811015610e9a5784840389528151610e7b8582610e16565b9450610e8683610e2a565b925060208a01995050600181019050610e62565b50829750879550505050505092915050565b60006020820190508181036000830152610ec68184610e37565b905092915050565b60008060408385031215610ee557610ee4610ac6565b5b6000610ef385828601610ca8565b9250506020610f0485828601610ca8565b9150509250929050565b600082825260208201905092915050565b6000610f2a82610d25565b610f348185610f0e565b9350610f44818560208601610d41565b610f4d81610ada565b840191505092915050565b60006020820190508181036000830152610f728184610f1f565b905092915050565b7f4e487b7100000000000000000000000000000000000000000000000000000000600052602260045260246000fd5b60006002820490506001821680610fc157607f821691505b60208210811415610fd557610fd4610f7a565b5b50919050565b7f496e697469616c697a61626c653a20636f6e747261637420697320616c72656160008201527f647920696e697469616c697a6564000000000000000000000000000000000000602082015250565b6000611037602e83610f0e565b915061104282610fdb565b604082019050919050565b600060208201905081810360008301526110668161102a565b905091905056fea2646970667358221220b255399c2f86d1671c541b8911c541897c5f9a11eaf50e9d2d00ec324299371264736f6c634300080a0033",
    "immutableReferences": {},
    "source": "// SPDX-License-Identifier: MIT\r\npragma solidity >=0.4.22 <0.9.0;\r\n\r\nimport '@openzeppelin/contracts-upgradeable/proxy/utils/Initializable.sol';\r\n\r\ncontract CoveyLedger is Initializable {\r\n    struct CoveyContent {\r\n        address analyst;\r\n        string content;\r\n        uint256 created_at;\r\n    }\r\n\r\n    mapping(address => CoveyContent[]) analystContent;\r\n    CoveyContent[] allContent;\r\n    address owner;\r\n\r\n    function initialize() public initializer {\r\n        owner = msg.sender;\r\n    }\r\n\r\n    event ContentCreated(\r\n        address indexed analyst,\r\n        string content,\r\n        uint256 indexed created_at\r\n    );\r\n\r\n    event AddressSwapped(\r\n        address indexed oldAddress,\r\n        address indexed newAddress\r\n    );\r\n\r\n    function createContent(string memory content) public {\r\n        CoveyContent memory c = CoveyContent({\r\n            analyst: msg.sender,\r\n            content: content,\r\n            created_at: block.timestamp\r\n        });\r\n        analystContent[msg.sender].push(c);\r\n        allContent.push(c);\r\n\r\n        emit ContentCreated(msg.sender, content, block.timestamp);\r\n    }\r\n\r\n    function getAnalystContent(address _adr)\r\n        public\r\n        view\r\n        returns (CoveyContent[] memory)\r\n    {\r\n        return analystContent[_adr];\r\n    }\r\n\r\n    function getAllContent() public view returns (CoveyContent[] memory) {\r\n        return allContent;\r\n    }\r\n\r\n    function swapAddress(address oldAddress, address newAddress) public {\r\n        require(msg.sender == oldAddress);\r\n        CoveyContent[] storage copyContent = analystContent[msg.sender];\r\n        analystContent[newAddress] = copyContent;\r\n\r\n        emit AddressSwapped(oldAddress, newAddress);\r\n    }\r\n}\r\n",
    "sourcePath": "C:\\Users\\jcara\\Documents\\repos\\covey-ledger\\contracts\\CoveyLedger.sol"
}